:100000000C9487010C94B8010C94B8010C94B801BD
:100010000C94B8010C94B8010C94B8010C94B8017C
:100020000C94B8010C94B8010C94B8010C94B8016C
:100030000C94B8010C94B8010C94B8010C94B8015C
:100040000C94B8010C94B8010C94B8010C94B8014C
:100050000C94B8010C94B8010C94B8010C94951848
:100060000C94B8010C945F180C9435180C94B801DA
:100070000C94B8010C94B8010C94B8010C94B8011C
:100080000C94B8010C94B8010C94B8010C94B8010C
:100090000C94FF170C94D5170C94B8010C94DF182E
:1000A0000C94B8010C94B8010C94B8010C94B801EC
:1000B0000C94B8010C94B8010C94B8010C94B801DC
:1000C0000C94B8010C94B8010C94B8010C94B801CC
:1000D0000C94B8010C94B8010C94B8010C94B801BC
:1000E0000C94B8010C945E0F0C94F20D0C94C90D95
:1000F0000C9439020C94F2200C94FD200C94031AF9
:100100000C9438120C9425020C9456030C94D20DC6
:100110000C9447020C9441030C9466030C947803EE
:100120000C944B030C94D6020C94C8110C94D90176
:100130000C94FB200C9481030C94F9200C9437123E
:100140000C9486030C949F110C9460030C946E0322
:100150000C94931C0C9427140C946A030C94620B5B
:100160000C945C030C944F030C94C1110C94680D17
:100170000C94DF200C9447030C9474030C94EB2034
:100180000C949E110C941F0E0C94E9010C94921C7B
:100190000C94F5110C94AE110C947C030C94020E8B
:1001A0000C9416020C9489020C9453030C94540F73
:1001B0000C94DA010C9482030C94FF207C3C3E5E8C
:1001C0002B3D3F2F5B5D3B2C2A225C0030393A32BD
:1001D000373A3539004D61792032302032303232B1
:1001E00000000020002300260029002C002F0032F0
:1001F000000001000003010601090100000A0B02D2
:10020000090C0D0E080703040100000000000000A7
:1002100000000000000000000000000000000000DE
:10022000000000000000001211100000000000009B
:1002300000000000000000000000000000000000BE
:100240000000002200250028002B002E0031003481
:100250000002010000050108010B0100002100243B
:100260000027002A002D00300033000101000004A7
:100270000107010A01050505050705080808080228
:100280000202020A0A08080404040401010101012F
:100290000101010303030303030303040707070C1E
:1002A0000C0C0C0C0C0C0C020202020606060606D4
:1002B0000606060B0B0B0B0B0B0B0B010210202081
:1002C00008081020401020408002010201080402AA
:1002D0000101020408102040808040201008040220
:1002E0000180040201804020100804020108040279
:1002F000010102040810204080010204081020407F
:10030000801F1C1F1E1F1E1F1F1E1F1E031A1124CD
:100310001FBECFEFD1E2DEBFCDBF00E00CBF12E0C9
:10032000A0E0B2E0E4EDF9E400E00BBF02C007900A
:100330000D92A837B107D9F727E0A8E7B2E001C0CE
:100340001D92AD33B207E1F711E0C7E8D1E000E05C
:1003500006C021970109802FFE010E949322C63812
:10036000D10780E00807A9F70E94071B0C94E82436
:100370000C94000090E0FC01E554FD4F24918B5853
:100380009D4FFC018491882399F090E0880F991F7C
:10039000FC01E55AFD4FA591B491FC01EF5BFD4FC7
:1003A000859194918FB7F894EC91E22BEC938FBFE9
:1003B000089508950895DB0114964D915C91159769
:1003C0006D917C91DC01ED91FC910280F381E02D37
:1003D0001994AF92BF92CF92DF92EF92FF920F9358
:1003E0001F93CF93DF936C017B018B01040F151FCB
:1003F000EB015E01AE18BF08C017D10759F0699133
:10040000D601ED91FC910190F081E02DC601199586
:10041000892B79F7C501DF91CF911F910F91FF9043
:10042000EF90DF90CF90BF90AF900895FC01538D77
:10043000448D252F30E0842F90E0821B930B5417BE
:1004400010F0CF96089501970895FC01918D828D4B
:10045000981761F0A28DAE0FBF2FB11D5D968C91E4
:10046000928D9F5F9F73928F90E008958FEF9FEF23
:100470000895FC01918D828D981731F0828DE80FDF
:10048000F11D858D90E008958FEF9FEF0895FC0199
:10049000918D228D892F90E0805C9F4F821B910966
:1004A0008F73992708958AE795E00E94470221E01B
:1004B000892B09F420E0822F089587E196E00E94BD
:1004C000470221E0892B09F420E0822F0895FC01E6
:1004D000A48DA80FB92FB11DA35ABF4F2C91848DA5
:1004E00090E001968F739927848FA689B7892C9302
:1004F000A089B1898C91837080648C93938D848D55
:10050000981306C00288F389E02D80818F7D808357
:100510000895EF92FF920F931F93CF93DF93EC0117
:1005200081E0888F9B8D8C8D98131AC0E889F9899A
:10053000808185FF15C09FB7F894EE89FF8960839D
:10054000E889F98980818370806480839FBF81E01E
:1005500090E0DF91CF911F910F91FF90EF90089560
:10056000F62E0B8D10E00F5F1F4F0F731127E02E3B
:100570008C8D8E110CC00FB607FCFACFE889F98973
:10058000808185FFF5CFCE010E946702F1CFEB8D10
:10059000EC0FFD2FF11DE35AFF4FF0829FB7F89447
:1005A0000B8FEA89FB8980818062CFCFCF93DF9365
:1005B000EC01888D8823B9F0AA89BB89E889F9897B
:1005C0008C9185FD03C0808186FD0DC00FB607FCB0
:1005D000F7CF8C9185FFF2CF808185FFEDCFCE01E3
:1005E0000E946702E9CFDF91CF91089580E090E00B
:1005F000892B29F00E945D0281110E94000080E099
:1006000090E0892B29F00E94530281110E94000082
:1006100080E090E0892B49F080E090E0892B29F080
:100620000E94000081110E94000080E090E0892B70
:1006300049F080E090E0892B29F00E9400008111B0
:100640000C94000008958150823108F05AC0E82FC0
:10065000F0E08827E15DFC4F8F4F0C9493224F030D
:100660005303410347034B03810356035C036003B9
:1006700066036A036E037403780381037C038203B9
:100680008603809180008F77809380000895809109
:1006900080008F7DF9CF80918000877FF5CF84B572
:1006A0008F7784BD089584B58F7DFBCF8091B00096
:1006B0008F778093B00008958091B0008F7DF9CF3F
:1006C000809190008F7780939000089580919000A2
:1006D0008F7DF9CF80919000877FF5CF8091A0002A
:1006E0008F778093A00008958091A0008F7DF9CF2F
:1006F0008091A000877FF5CF809120018F77809334
:1007000020010895809120018F7DF9CF80912001F3
:10071000877FF5CF1F93CF93DF93282F30E0F90128
:10072000E550FE4F8491F901E554FD4FD491F90154
:10073000EB58FD4FC491CC23A9F0162F81110E94D4
:100740002303EC2FF0E0EE0FFF1FEF5BFD4FA591B1
:10075000B4918FB7F894EC91111108C0D095DE23B5
:10076000DC938FBFDF91CF911F910895DE2BF8CFDF
:100770003FB7F8948091C8029091C902A091CA0233
:10078000B091CB0226B5A89B05C02F3F19F001966A
:10079000A11DB11D3FBFBA2FA92F982F8827BC01DB
:1007A000CD01620F711D811D911D42E0660F771F03
:1007B000881F991F4A95D1F708958F929F92AF9203
:1007C000BF92CF92DF92EF92FF924B015C010E94A9
:1007D000B8036B017C010E94B8036C197D098E0976
:1007E0009F09683E734081059105A8F321E0821AB4
:1007F0009108A108B10888EEC80E83E0D81EE11C5C
:10080000F11C81149104A104B10429F7FF90EF9029
:10081000DF90CF90BF90AF909F908F9008952FB7AB
:10082000F8946091C4027091C5028091C6029091C3
:10083000C7022FBF0895FC01908190539A3008F0B1
:1008400090E0818180532AE0929F800D11240895C9
:100850008FB7F8948091BD028FBF089561E0FC01CD
:1008600084810E948A038091BC0281111092BC0293
:1008700008958EBD00000DB407FEFDCF8EB508951E
:100880008FEF0C9439040F931F93CF93DF93EC01F8
:100890000E940F048B010E9440048F3F69F00E9468
:1008A0000F04601B710B6C177D07A8F380E0DF91CC
:1008B000CF911F910F91089581E0F9CF8CBD9DBD1F
:1008C0000895CF93DF93EC018091BC02811109C0A0
:1008D00081E08093BC028091B4069091B5060E949D
:1008E0005E0460E08C81DF91CF910C948A038F923B
:1008F0009F92AF92BF92FF920F931F93CF93DF937C
:10090000EC01F62E49015A018E81882389F08F81EE
:1009100098859C012F5F3F4F38872F83823092400C
:1009200018F40E944004F3CFCE010E942E041E82D0
:10093000CE010E9461048CE291E00E9443048F2D5D
:1009400080640E94390408E110E0D501C401002E42
:1009500004C0B695A795979587950A94D2F70E94FB
:10096000390408501109083F8FEF180771F785E91E
:10097000FF2021F028E087E8F2128FEF0E9439046F
:1009800010E00E9440048A8787FF04C01F3F11F0D7
:100990001F5FF7CFDF91CF911F910F91FF90BF9015
:1009A000AF909F908F900895AF92BF92CF92DF92B9
:1009B000EF92FF920F931F93CF93DF93EC016901A6
:1009C000C801820F931F8130924050F58E81882399
:1009D00079F088819981AA81BB8184179507A60740
:1009E000B70731F48F819885C816D90608F042C040
:1009F000488359836A837B838B85833039F089E010
:100A0000440F551F661F771F8A95D1F79A01AB01D6
:100A100061E1CE010E947704882389F083E08D8311
:100A2000CE010E942E0480E0DF91CF911F910F91A3
:100A3000FF90EF90DF90CF90BF90AF9008950E940D
:100A40000F045B010E9440048A878F3F69F40E9473
:100A50000F046A197B096D327140A0F38FE08D831A
:100A6000CE010E942E04DCCF8E3F89F418861F82AF
:100A700081E08E838F8198858C159D0550F40E94AE
:100A800040048F819885019698878F83F3CF8DE0FE
:100A9000E6CF6701E00EF11E0E944004F60181934B
:100AA0006F01EE15FF05C1F78F819885080F191F9B
:100AB00018870F838985882319F001151240A0F04B
:100AC0008E81882389F08F8198859C012F5F3F4F0D
:100AD00038872F838230924018F40E944004F3CF6D
:100AE000CE010E942E041E8281E09ECFCF92DF9223
:100AF000EF92FF920F93CF93DF93EC01690182E1B4
:100B0000411551056105710599F08B85833039F0E8
:100B100089E0440F551F661F771F8A95D1F79A0108
:100B2000AB0168E1CE010E947704882319F084E0CC
:100B30008D832DC08EEF0E94390476018EEFD81A76
:100B4000F70181917F010E943904EC14FD04C1F783
:100B50008FEF0E9439048FEF0E9439040E944004F5
:100B60008A878F71853071F4011116C0CE010E9401
:100B70002E0481E0DF91CF910F91FF90EF90DF90F5
:100B8000CF90089581E18D83CE010E942E04CE0185
:100B90000E942E0480E0EECF88E592E00E9443049C
:100BA000811102C085E1C4CF20E030E0A9016DE0F1
:100BB000CE010E947704882311F084E1B9CF0E940E
:100BC00040048111FACFD2CF0F934091BF025091D0
:100BD000C0026091C1027091C202411551056105C8
:100BE000710599F0082F28E733E0809178059091FE
:100BF00079050E947605882349F01092BF02109271
:100C0000C0021092C1021092C20281E00F910895B9
:100C10000F93CF93C82F8091BE02811105C0C1E010
:100C20008C2FCF910F9108954091000250910102B5
:100C300060910202709103020C2F28E733E080914B
:100C40007805909179050E947605811102C0C0E077
:100C5000E7CFCC2321F381E00E94E4058823B9F398
:100C60001092BE02DDCF8F929F92AF92BF92EF9211
:100C7000FF920F931F93CF934B015C01C42F809180
:100C8000000290910102A0910202B0910302881526
:100C90009905AA05BB0551F181E00E940806811162
:100CA0000BC080E0CF911F910F91FF90EF90BF900C
:100CB000AF909F908F90089588E7E82E83E0F82EFC
:100CC00000E012E030E020E0B501A4018091780559
:100CD000909179050E94D404882319F38092000230
:100CE00090920102A0920202B09203024091BE02D1
:100CF0004C2B4093BE0281E0D5CF8F929F92AF9252
:100D0000BF92CF92DF92EF92FF92CF9326EB36E025
:100D10003093790520937805882309F46DC040E06D
:100D200060E070E0CB010E94330681110BC080E0CF
:100D3000CF91FF90EF90DF90CF90BF90AF909F90BA
:100D40008F900895809136058F7789F780914205BD
:100D500090914305A0914405B091450584369105D5
:100D6000A105B10520F3C0903E05D0903F05E0906D
:100D70004005F0904105C114D104E104F104B9F239
:100D800040E0C701B6010E943306882381F28091BA
:100D90008303909184038115924049F6A0918803C2
:100DA000AA2329F26091860370918703611571056A
:100DB00009F4BDCF20918503222309F4B8CFA09375
:100DC000D4062093C60690E080E030E0E1E0F0E059
:100DD000C82FAF01082E02C0440F551F0A94E2F736
:100DE0002417350769F041E0480F019689309105D5
:100DF00079F74093CF069BCFC12CD12C7601C0CF81
:100E00008093CF0620918E0330918F0350E040E015
:100E10002115310541F420919C0330919D034091AF
:100E20009E0350919F032093C7063093C8064093BA
:100E3000C9065093CA0646015701860E971EA11C8B
:100E4000B11C8092D5069092D606A092D706B09299
:100E5000D806E0918903F0918A03F093DB06E093D2
:100E6000DA06B0E00E943722DC01CB01880D991D23
:100E7000AA1DBB1D8093DC069093DD06A093DE06C1
:100E8000B093DF0625E0EE0FFF1F2A95E1F7E15052
:100E9000FE4FEF2FFF27E6958E0F9F1FA11DB11D5F
:100EA0008093D0069093D106A093D206B093D30638
:100EB00080908B0390908C03B12CA12C8114910411
:100EC00041F48090980390909903A0909A03B09079
:100ED0009B03C81AD90AEA0AFB0AC80CD91CEA1CE7
:100EE000FB1C04C0F694E794D794C794CA95D2F734
:100EF000C092CB06D092CC06E092CD06F092CE0600
:100F000085EFC8168FE0D806E104F10428F48CE0E0
:100F10008093D90681E00CCF80E125EFC2162FEF38
:100F2000D206E104F104A0F38091A4039091A503FB
:100F3000A091A603B091A7038093DC069093DD06F1
:100F4000A093DE06B093DF0680E2E2CF4F925F927D
:100F50006F927F928F929F92AF92BF92CF92DF92C9
:100F6000EF92FF920F931F93CF93DF93EC014230E8
:100F700051056105710590F480E0DF91CF911F91DB
:100F80000F91FF90EF90DF90CF90BF90AF909F9028
:100F90008F907F906F905F904F90089589859A858C
:100FA000AB85BC850196A11DB11D84179507A607C9
:100FB000B70710F3CB88DC88ED88FE888F898031F5
:100FC00009F042C0BB27A72F962F852F4801590152
:100FD0002A013B01C80ED91EEA1EFB1E80910002A9
:100FE00090910102A0910202B0910302C816D906A5
:100FF000EA06FB0699F58F898031C1F5B301A2019C
:10100000552766277727440F551F48585C4FFA012C
:10101000918280828091BE0281608093BE028A8923
:10102000823080F08D819E81AF81B8858C0D9D1DB1
:10103000AE1DBF1D8093BF029093C002A093C1025A
:10104000B093C20281E099CFDB01CA01E7E0B69517
:10105000A79597958795EA95D1F7B8CF40E0C70156
:10106000B6010E9433068111C6CF86CFB301A2011B
:101070004F77552766277727440F551F440F551F75
:1010800048585C4FFA0180829182A282B382C2CF1B
:101090008F929F92AF92BF92CF92DF92EF92FF9288
:1010A0000F931F93CF93DF93FC0181859285A385D6
:1010B000B4850196A11DB11D84179507A607B70732
:1010C00070F480E0DF91CF911F910F91FF90EF902E
:1010D000DF90CF90BF90AF909F908F9008958388BE
:1010E0009488A588B6888789803189F5BB27A72F82
:1010F000962F852FE9016A017B018F01BC01CD018B
:10110000680D791D8A1D9B1D809000029090010240
:10111000A0900202B090030286169706A806B906B0
:1011200001F5F8018789803111F5DD24EE24FF24D3
:10113000F601EE0FFF1FE858FC4F80819181B0E06F
:10114000A0E088839983AA83BB8381E0BBCFDB01C6
:10115000CA01C7E0B695A79597958795CA95D1F727
:10116000C9CF40E00E9433068111DBCFAACFE894BB
:10117000C7F8DD24EE24FF24F601EE0FFF1FEE0F6B
:10118000FF1FE858FC4F80819181A281B381BF701D
:10119000D8CF4F925F926F927F92AF92BF92CF92D1
:1011A000DF92EF92FF920F931F93CF93DF9300D0C4
:1011B0001F92CDB7DEB78C0149835A836B837C8342
:1011C0005901C12CD12C7601412C82E0582E612C82
:1011D000712C49815A816B817C819E012F5F3F4F29
:1011E000C8010E944808882339F1F8018585A301C8
:1011F000920104C0220F331F441F551F8A95D2F756
:10120000DA01C901C80ED91EEA1EFB1E49815A81A6
:101210006B817C818789803111F188EF9FEFAFEF7F
:10122000BFE0481759076A077B0798F2F501C082AB
:10123000D182E282F38281E00F900F900F900F90A5
:10124000DF91CF911F910F91FF90EF90DF90CF90A2
:10125000BF90AF907F906F905F904F90089588EF10
:101260009FEFA0E0B0E0DDCFCF93DF93FC012581BD
:10127000222321F080E0DF91CF910895EC0180914D
:10128000D906803159F582E08583178A108E118E38
:10129000128E8091DA069091DB06B0E0A0E025E0A6
:1012A000880F991FAA1FBB1F2A95D1F7838B948B98
:1012B000A58BB68B82EC96E09C8F8B8F81E08C8324
:1012C0001E821F82188619861A861B861C861D861A
:1012D0001E861F86188A198A1A8ACDCF803251F647
:1012E00083E085834091DC065091DD066091DE0647
:1012F0007091DF06478B508F618F728F9F012D5E3B
:101300003F4F82EC96E00E94C9088111D3CFB2CF43
:101310008F929F92AF92BF92CF92DF92EF92FF9205
:101320000F931F93CF93DF93EC018D8181110EC03A
:1013300080E0DF91CF911F910F91FF90EF90DF90B0
:10134000CF90BF90AF909F908F9008950B891C898C
:101350002D893E89041715072607370748F34A01E8
:101360005B01823031F48A869B86AC86BD8681E043
:10137000E0CF81149104A104B10449F41E821F82BC
:10138000188619861A861B861C861D86F0CF0A854C
:101390001B852C853D85EB8DFC8D858590E0099620
:1013A000B901A8014150510961097109082E04C011
:1013B00076956795579547950A94D2F7750164011C
:1013C000E1E0CE1AD108E108F10804C0F694E794F0
:1013D000D794C7948A95D2F7C416D506E606F706C1
:1013E00020F0012B022B032B11F58F89988DA98DED
:1013F000BA8D8E839F83A887B9878E010A5F1F4F9E
:10140000C114D104E104F10409F4ADCF4E815F8130
:101410006885798598018B8D9C8D0E94480891E0A4
:10142000C91AD108E108F1088111EACF81CFC41AA5
:10143000D50AE60AF70AE1CF3F924F925F926F9288
:101440007F928F929F92AF92BF92CF92DF92EF9254
:10145000FF920F931F93CF93DF93CDB7DEB72C97F7
:101460000FB6F894DEBF0FBECDBF5C01DC015B960A
:101470008D909C905C9716964D905D906D907C90B1
:101480001997411451046104710409F468C0BFEF55
:101490004B1A5B0A6B0A7B0A312CF4018185928519
:1014A000A385B4859C01AD012F5F3F4F4F4F5F4F28
:1014B00029873A874B875C87730162011D821E82F0
:1014C0001F821886F40181859285A385B4852D81BC
:1014D0003E814F815885281739074A075B0708F076
:1014E00056C089859A85AB85BC858C159D05AE0552
:1014F000BF0550F482E0C82ED12CE12CF12C92E0F3
:10150000492E512C612C712C9E012F5F3F4FB7014A
:10151000A601C4010E9448088823C9F189819A81E3
:10152000AB81BC81892B8A2B8B2B09F126013701DA
:101530009FEF491A590A690A790A2D813E814F8124
:1015400058852F5F3F4F4F4F5F4F2D833E834F8313
:1015500058873FEFC31AD30AE30AF30AB3CFF40163
:1015600040805180628073803324339496CFC414BA
:10157000D504E604F70409F70FEF1FEF2FEF3FE064
:10158000B701A601C4010E94A607811119C080E01D
:101590002C960FB6F894DEBF0FBECDBFDF91CF9172
:1015A0001F910F91FF90EF90DF90CF90BF90AF9081
:1015B0009F908F907F906F905F904F903F90089595
:1015C000D50116964D915D916D917C9119974115BC
:1015D00051056105710539F097018601C4010E942A
:1015E000A6078823A1F2D5011696CD92DD92ED9241
:1015F000FC921997332051F0D701C6010196A11D25
:10160000B11DF40180839183A283B383F50187899F
:10161000908DA18DB28D892B8A2B8B2B39F48481EF
:10162000C78AD08EE18EF28E80688483F501848132
:101630008062848381E0ACCF1F93CF93DF93FC0162
:1016400025812223D1F1162FEC01848187FF2AC046
:10165000668577858089918941E00E9433068823D9
:1016600061F1EA8980E2E89FF0011124E858FC4F1B
:10167000309719F18D81823040F48B899C89AD8936
:10168000BE89848F958FA68FB78F8F89988D938F02
:10169000828F8F89988DA98DBA8DB58BA48B8C8103
:1016A0008F778C83111103C08C818F7E8C83812F67
:1016B000DF91CF911F910C94080680E0DF91CF91CC
:1016C0001F910895FF920F931F93CF93DF93EC0127
:1016D0008D81813041F090E080E0DF91CF911F91CA
:1016E0000F91FF9008958C8181FFF5CF82FD1BC083
:1016F0000091780510917905C8010E9461040E944B
:101700004004F82EC8010E942E048FEFF812E3CF98
:101710008C8185FF1BC060E0CE010E941C0B8C8178
:101720008F7D8C83D8CF4B895C896D897E898A8532
:101730009B85AC85BD8584179507A607B707C1F2C1
:10174000CE010E9488098111D3CFC5CF4091BF023D
:101750005091C0026091C1027091C202452B462B8C
:10176000472B21F080E00E94E405B5CF80618C8397
:101770002A853B85317080E092E0821B930BADCFD0
:10178000CF93DF93EC0161E00E941C0B882311F0E2
:101790001D8281E0DF91CF9108952F923F924F9269
:1017A0005F926F927F928F929F92AF92BF92CF92F1
:1017B000DF92EF92FF920F931F93CF93DF9300D0AE
:1017C0001F921F92CDB7DEB77C015B01342E5D8383
:1017D000DC0115968C911597813009F0CEC01496D6
:1017E0002C9021FECAC022FCB4C0C32CDD80229400
:1017F0007FE027222094B22DB1702B2ED7011A96AC
:101800004D915D916D917C911D97C114D10409F4A6
:1018100028C15B968D919C915C97FC0174807A94B1
:101820008A019B0169E036952795179507956A957A
:10183000D1F770228A011170711020C001151105B5
:10184000E9F416964D915D916D917C911997411532
:1018500051056105710509F099C057968D919D91CB
:101860000D90BC91A02D0097A105B10509F0B0C065
:10187000C7010E941C0A882309F47FC080E092E01F
:10188000801B910B46018C159D0508F44C01D70176
:101890005B964D915C915C9716968D919D910D9004
:1018A000BC91A02D0297A109B109FA01258504C0B8
:1018B000880F991FAA1FBB1F2A95D2F74685578507
:1018C00060897189840F951FA61FB71F9C01AD0108
:1018D000270D311D411D511D29013A01811432E0AE
:1018E000930609F07BC08091000290910102A091C3
:1018F0000202B091030284159505A605B70559F4B7
:101900008FEF9FEFDC018093000290930102A09380
:101910000202B0930302022D9501B301A20180914E
:101920007805909179050E947605882331F19EEF24
:10193000B91AC818D908F70182859385A485B58599
:10194000880D991DA11DB11D82879387A487B58736
:1019500055CFF701438954896589768982859385B6
:10196000A485B585481759076A077B0709F43DCF59
:10197000C7010E948809811138CF81E090E0D7012A
:1019800013969C938E93129780E007C09E012F5F61
:101990003F4F0E944808811102C090E079C08981C0
:1019A0009A81AB81BC81F701238D348DF9012789A0
:1019B00048EF5FEF60E070E0203121F048EF5FEF2B
:1019C0006FEF7FE084179507A607B70708F050CFA1
:1019D000F70186839783A087B18750CF0115110542
:1019E00099F5D7011A964D915D916D917C911D9756
:1019F00053968D919D910D90BC91A02D481759073C
:101A00006A077B0708F181E00E940806882309F431
:101A1000B4CF409200025092010260920202709292
:101A200003028091BE0281608093BE02C801885883
:101A30009C4FD5019C01280D391DFC012E173F0735
:101A400059F04D914193FACF41E0C301B2010E9498
:101A500033068111EBCF91CF281B390BA20EB31E99
:101A600068CFF70183899489A589B689841795077A
:101A7000A607B70738F48481438B548B658B768B2C
:101A800080688483F701848183FD1AC0832D9D8142
:101A90000F900F900F900F900F90DF91CF911F91AB
:101AA0000F91FF90EF90DF90CF90BF90AF909F90FD
:101AB0008F907F906F905F904F903F902F90089500
:101AC00061E0C7010E941C0B882309F456CFDECFCA
:101AD000CF93DF931F92CDB7DEB7698341E050E02B
:101AE000BE016F5F7F4F0E94CD0B0F90DF91CF91B2
:101AF0000895FC01DB0112968D919C9113979383BD
:101B0000828388E292E09183808314968C9114976B
:101B1000848315968C911597858316964D915D91CA
:101B20006D917C91199746835783608771871A96C8
:101B30004D915D916D917C911D974287538764878C
:101B400075871E964D915D916D917C915197468759
:101B50005787608B718B52968C915297828B5396DC
:101B60004D915D916D917C915697438B548B658B14
:101B7000768B57964D915D916D917C915A97478BDD
:101B8000508F618F728F5B968D919C91948F838F14
:101B90000895FC01818D928D009719F061E00C94FD
:101BA0001C0B0895DC015996ED91FC913097B9F02A
:101BB00083899489A589B68942855385648575850D
:101BC000841B950BA60BB70B811520E89207A10586
:101BD000B10538F08FEF9FE7A0E0B0E0089590E006
:101BE00080E00895DC0159968D919C91009739F021
:101BF000DC01ED91FC910480F581E02D199490E0D9
:101C000080E00895CF93DF93EC01E98DFA8D309752
:101C100049F481E090E09B838A8390E080E0DF914B
:101C2000CF91089513821282898D9A8D0E94CD0BD7
:101C3000E98DFA8D22813381232B59F7F0CFCF9391
:101C4000DF931F92CDB7DEB76983DC01ED91FC9184
:101C50000280F381E02D41E050E0BE016F5F7F4FD5
:101C600019950F90DF91CF9108952F923F924F9247
:101C70005F926F927F928F929F92AF92BF92CF921C
:101C8000DF92EF92FF920F931F93CF93DF9300D0D9
:101C9000CDB7DEB7FC018581811118C08FEF9FEFB2
:101CA0000F900F900F90DF91CF911F910F91FF90A8
:101CB000EF90DF90CF90BF90AF909F908F907F90EC
:101CC0006F905F904F903F902F900895848180FF98
:101CD000E5CF438954896589768982859385A48572
:101CE000B585312C212C481759076A077B0719F055
:101CF00022242394312C6F012101CE0101963C0155
:101D0000DF011696BB83AA834114510409F4C5C0B0
:101D1000F60142855385648575854A01F1E09F226D
:101D2000D6015B968D919C915C978A019B01E9E0BD
:101D30003695279517950795EA95D1F71596EC9165
:101D4000E230E9F5FC01628D738D848D958D600F15
:101D5000711F821F931FA12C22E0B22EA818B90870
:101D60004A145B0408F45201F601248126FD04C0E4
:101D7000A114F2E0BF0671F400910002109101027B
:101D8000209102023091030206171707280739072E
:101D900009F05EC040E00E943306882309F47ECF3C
:101DA000C40188589C4FD3019C012A0D3B1DFC01A6
:101DB0002E173F0709F46CC041914D93F9CFDC0118
:101DC0001496BC90BA94B0228114910479F4B110A5
:101DD0000DC0452B462B472B69F5F6018789908D61
:101DE000A18DB28D86839783A087B187D6015B963C
:101DF000ED91FC915C9716966D917D918D919C91E2
:101E000019976250710981099109258504C0660FEF
:101E1000771F881F991F2A95D2F706851785208975
:101E20003189600F711F821F931F6B0D711D811D02
:101E3000911D91CFD60116964D915D916D917C913A
:101E400019972A813B810E9448088111CFCF26CF64
:101E5000730185019401AB01BC01809178059091DB
:101E600079050E94D404882309F418CF6A0C7B1CDE
:101E7000F60182859385A485B5858A0D9B1DA11DDC
:101E8000B11D82879387A487B5874A185B083CCF2A
:101E9000281B390B620E731EEBCF2A94232809F0FE
:101EA000FDCE898190E0FCCEFC01818D928D009762
:101EB00011F00C94350E8FEF9FEF08950F931F9341
:101EC000CF93DF93EC01898D9A8D10E000E00097AD
:101ED00099F00E94350E8C010F3F100769F0898D33
:101EE0009A8DFC0142855385648575854150510961
:101EF000610971090E948809C801DF91CF911F9182
:101F00000F91089520919902260F3327331F213214
:101F10003105ECF420914E03FC0190E080E0243088
:101F200069F082E00895A09199022191AC0147588F
:101F30005D4FA40FB52FB11D2C930196861798F312
:101F400080919902680F6093990280E0089581E082
:101F5000089510924E0381E080934D031092280360
:101F600061E084E10E948A0361E085E10E948A03C6
:101F7000E9EBF0E080818E7F808380818D7F80839C
:101F800088E48093B80085E48093BC000895CF93E3
:101F9000DF9391E0909378028823B9F0C091B80064
:101FA000D091BA008091BC008A7B8093BC0060E035
:101FB00084E10E948A0360E085E10E948A030E9416
:101FC000A90FD093BA00C093B800DF91CF910895C4
:101FD000CF92DF92EF92FF920F931F93CF93DF93F5
:101FE000D091770381E0D13208F09CC0C091760394
:101FF0000E94B8036B017C0180914E0381116CC07B
:1020000082E080934E0381E080934D038FEF8093B5
:102010004C0310924B03D0934A03A6E5B3E0EAE2E7
:10202000F3E080E0D8138DC010922903809129033A
:10203000CC0FC82BC093290380912803813009F06D
:1020400084C0109228030E94B8036B017C01809128
:1020500029038093BB008091500390915103A0917C
:102060005203B0915303892B8A2B8B2BA1F00E9432
:10207000B803009150031091510320915203309105
:1020800053036C197D098E099F0906171707280746
:10209000390708F442C08091BC0083FDD8CF85EC9D
:1020A0008093BC000E94B8036B017C0180914E03B9
:1020B000823009F44CC080914C038F3F09F469C011
:1020C00080914C03803209F466C080914C038033C8
:1020D00009F463C084E026C08091500390915103BD
:1020E000A0915203B0915303892B8A2B8B2B09F4B7
:1020F00083CF0E94B80300915003109151032091A7
:102100005203309153036C197D098E099F090617FC
:1021100017072807390708F06FCF80914F030E94F7
:10212000C70F85E010925503109277031092540365
:10213000DF91CF911F910F91FF90EF90DF90CF90A3
:1021400008959D9191938F5F6DCF85EEA9CF80917A
:10215000500390915103A0915203B0915303892BE6
:102160008A2B8B2B09F4A2CF0E94B8030091500355
:102170001091510320915203309153036C197D0942
:102180008E099F09061717072807390708F08ECF11
:10219000C4CF80E0C7CF82E0C5CF83E0C3CFCF926A
:1021A000DF92EF92FF920F931F93CF93DF93D82F7D
:1021B000C62F613208F098C00E94B8036B017C0101
:1021C00080914E0381116BC081E080934E03809318
:1021D0004D039FEF90934C0310924B039C0F9093F1
:1021E0004A038093290380912903DD0FD82BD093D4
:1021F000290380912803813009F078C010922803C8
:102200000E94B8036B017C01809129038093BB007D
:102210008091500390915103A0915203B0915303C8
:10222000892B8A2B8B2BA1F00E94B80300915003BD
:102230001091510320915203309153036C197D0981
:102240008E099F09061717072807390708F448C0A1
:102250008091BC0083FDD8CF85EC8093BC000E94A8
:10226000B8036B017C0180914E03813009F440C0BA
:1022700080914B038C1710F4C0914B03EAE2F3E01A
:10228000A8E0B3E080E08C1355C08C2FDF91CF9194
:102290001F910F91FF90EF90DF90CF900895809164
:1022A000500390915103A0915203B0915303892B95
:1022B0008A2B8B2B09F484CF0E94B8030091500322
:1022C0001091510320915203309153036C197D09F1
:1022D0008E099F09061717072807390708F070CFDE
:1022E00080914F030E94C70FC0E0CFCF85EEB5CFDE
:1022F0008091500390915103A0915203B0915303E8
:10230000892B8A2B8B2B09F4AECF0E94B803009146
:1023100050031091510320915203309153036C19D3
:102320007D098E099F09061717072807390708F046
:102330009ACFD6CF91919D938F5FA5CF0895E091CD
:10234000070380910603E81730F4F0E0E85FFC4FE4
:10235000808190E008958FEF9FEF0895909107039B
:10236000809106032FEF3FEF981748F4E92FF0E034
:10237000E85FFC4F208130E09F5F90930703C90125
:1023800008958091060390910703891B990B089586
:10239000CF92DF92EF92FF920F931F93CF93DF9331
:1023A0007C01CB018A0120915403222389F0EB01A7
:1023B0006B01C40ED51ECC15DD0569F06991D701FE
:1023C000ED91FC910190F081E02DC7011995F3CFBB
:1023D000642F0E94820FC801DF91CF911F910F914E
:1023E000FF90EF90DF90CF900895CF93DF931F92EF
:1023F000CDB7DEB76983209154032223F9F02091F1
:102400007703203258F021E030E0FC01338322834F
:1024100090E080E00F90DF91CF9108958091550377
:10242000E82FF0E0EA5AFC4F998190838F5F809308
:1024300055038093770381E090E0ECCF61E0CE011B
:1024400001960E94820FF7CFFC01248131E0309386
:1024500054032093760310925503109277038485DA
:10246000682B8FEF96E00E94F5110C94E80F089509
:1024700090E080E008958F929F92AF92BF920F9369
:102480001F93CF93DF93CDB7DEB7A1970FB6F89424
:10249000DEBF0FBECDBF19A2423008F44AE08E0164
:1024A0000F5D1F4F842E912CB12CA12CA5019401FE
:1024B0000E944222E62FB901CA01EA3044F5E05DEC
:1024C000D801EE938D01232B242B252B79F790E057
:1024D00080E0109769F0FD0101900020E9F7319745
:1024E000AF014A1B5B0BBD018CE297E00E94E90142
:1024F000A1960FB6F894DEBF0FBECDBFDF91CF918E
:102500001F910F91BF90AF909F908F900895E95CBD
:10251000D7CFFC0101900020E9F73197AF01481BAC
:10252000590BBC018CE297E00C94E901CF92DF9249
:10253000FF920F931F93CF93DF936C0181E0809301
:10254000540388E680937603109255031092770324
:1025500060E08FEF96E00E94F5110E94E80F67E0BF
:1025600088E60E94CF1010920703809306038FEF36
:1025700096E00E94AE118F77282F30E094E03595D9
:1025800027959A95E1F7922F990F990FC22FC91BA2
:10259000CC0FC80F8FEF96E00E94AE119C0144E073
:1025A000359527954A95E1F72F703327922F990F8C
:1025B000990FD22FD91BDD0FD80F8FEF96E00E9415
:1025C000AE119C0154E0359527955A95E1F72F708F
:1025D0003327922F990F990F122F191B110F180FD4
:1025E0008FEF96E00E94AE118FEF96E00E94AE1141
:1025F0009C0164E0359527956A95E1F72F703327A4
:10260000922F990F990F022F091B000F080F8FEFC0
:1026100096E00E94AE119C0174E0359527957A955D
:10262000E1F72F703327922F990F990FF22EF91A95
:10263000FF0CF80E8FEF96E00E94AE119C01E4E0D3
:1026400035952795EA95E1F72F703327922F990F4B
:10265000990F291B220F820FF6018083F1820283DA
:102660001383D483C583C601DF91CF911F910F914E
:10267000FF90DF90CF90089581E08093540388E627
:102680008093760310925503109277036FE08FEFDB
:1026900096E00E94F5110E94E80F61E088E60E9432
:1026A000CF1010920703809306038FEF96E00E94ED
:1026B000AE110895CF92DF92EF92FF921F93CF93C6
:1026C000DF93EC0180E2689FF0011124E858FC4F91
:1026D0009385917161F0842F827449F080E0DF91DD
:1026E000CF911F91FF90EF90DF90CF900895142F1E
:1026F0006A8B8091000290910102A0910202B09138
:1027000003028E879F87A88BB98BC488D588F12C4C
:10271000E12C7601DD24CC24CF8AD88EE98EFA8E86
:10272000828D938DB0E0A0E0AC01BD014C295D2904
:102730006E297F294F8B588F698F7A8F8385887197
:10274000B1F4848D958DA68DB78D8B8B9C8BAD8BC5
:10275000BE8B81E08D831F701C831E821F821886B2
:1027600019861A861B861C861D8681E0B8CF8031AB
:1027700009F0B4CF9E012D5E3F4F8B8D9C8D0E9442
:10278000C908882309F4AACF84E0E4CF0F931F93EC
:10279000CF938C01C62F0E9424126C2F6460C80155
:1027A0000E9424126C2F6B7FC8010E94241283ECBC
:1027B00090E00197F1F7CF911F910F9108950F933A
:1027C0001F93CF93DF938C01D62FC42F607F642B90
:1027D0000E94C61380E1D89FB00111246C2BC80160
:1027E000DF91CF911F910F910C94C613CF93DF937C
:1027F00000D000D01F921F92CDB7DEB798E0EAE07C
:10280000F2E0DE01119601900D929A95E1F7909118
:102810003407961708F46FEF262F30E0220F331F8E
:1028200041E050E04C0F5D1F240F351FF90160811E
:10283000680F606840E08CE297E028960FB6F89445
:10284000DEBF0FBECDBFDF91CF910C94DF1341E00F
:102850000E94DF1381E090E00895CF92DF92EF9223
:10286000FF926C01990FEE08FF08F7FE16C041E0D9
:102870006DE28CE297E00E94DF1366277727CB0199
:102880006C197D098E099F094AE00E943B1201964E
:10289000FF90EF90DF90CF9008954AE0C701B60116
:1028A000FF90EF90DF90CF900C943B12CF93DF938B
:1028B000C82FD091D702811105C08091D8028D1701
:1028C00009F489C0D093D80261E080E00E94F61339
:1028D000DA3024F490E080E00E942D148091D70239
:1028E000082E000C990B0E942D14CC2309F473C000
:1028F00080E692E00E948912D091DA02D093DB0246
:1029000061E083E00E94F613DA3024F490E080E086
:102910000E942D148091DA02082E000C990B0E945F
:102920002D14CC2309F45DC0D091DD02D093DE02DA
:1029300061E086E00E94F613DA3024F490E080E053
:102940000E942D148091DD02082E000C990B0E942C
:102950002D14CC2309F44BC082E692E00E94891228
:10296000D091E002D093E10261E089E00E94F61389
:10297000DA3024F490E080E00E942D148091E0028F
:10298000082E000C990B0E942D14C11109C09091C2
:10299000E4028091E302981307C0DF91CF9108957C
:1029A00082E692E00E948912C091E302C093E402A1
:1029B00061E08CE00E94F613CA3024F490E080E0DD
:1029C0000E942D148091E302082E000C990BDF91D8
:1029D000CF910C942D149091DB028091DA02981320
:1029E0008BCF9091DE028091DD0298139DCF909164
:1029F000E1028091E0029813B3CFC9CFCF93DF9368
:102A0000EC0188819981009711F00E94522319826C
:102A100018821D821C821B821A82DF91CF91089539
:102A2000FC0180819181009711F00C94522308954C
:102A30000F931F93CF93DF93EC01888199810097C7
:102A400059F02A813B812617370730F081E0DF916A
:102A5000CF911F910F9108958B016F5F7F4F0E945F
:102A6000DB23009759F0998388831B830A832C8189
:102A70003D81232B59F7FC011082E8CF80E0E7CF9E
:102A8000CF92DF92EF92FF920F931F93CF93DF933A
:102A9000CDB7DEB762970FB6F894DEBF0FBECDBFDD
:102AA0008C01CB01F80111821082138212821582EF
:102AB00014824AE09E012F5F3F4F6901B9010E94D5
:102AC000E321F60101900020E9F731977F01EC182E
:102AD000FD08B701C8010E941815811112C0C80174
:102AE0000E94FE1462960FB6F894DEBF0FBECDBFF3
:102AF000DF91CF911F910F91FF90EF90DF90CF90DA
:102B00000895F801F582E482B601808191810E94E6
:102B1000D224E8CFEF92FF920F931F93CF93DF93CE
:102B2000EC01FB01E080F180E114F10411F104817A
:102B3000158101151105A9F08C819D81080F191FC0
:102B4000B801CE010E941815882399F02881398197
:102B50008C819D81B701820F931F0E94D2241D8317
:102B60000C83CE01DF91CF911F910F91FF90EF90D9
:102B70000895CE010E94FE14F4CF3F924F925F92CF
:102B80006F927F928F929F92AF92BF92CF92DF927D
:102B9000EF92FF920F931F93CF93DF9300D000D05B
:102BA00000D01F921F92CDB7DEB77C01FE01319697
:102BB000CE010C966F0130E23193E817F907E1F787
:102BC000DA0130E087E09D91B92E992309F43CC0E9
:102BD0009E32F1F48A30C9F480E02B960FB6F89457
:102BE000DEBF0FBECDBFDF91CF911F910F91FF9040
:102BF000EF90DF90CF90BF90AF909F908F907F909D
:102C00006F905F904F903F90089538E08AE0DBCF5F
:102C1000ECEBF1E04491442321F031969413FACF88
:102C2000DBCF8317C8F24FED490F4E35A8F64FE9B9
:102C3000490F4A3118F440EEB42EB90EF601E30FF5
:102C4000F11DB0823F5FBFCF8981803229F2322EE1
:102C50008B01DB015B968D919C915C97F701948FC2
:102C6000838F16961D921D921D921C921997FB013F
:102C70001286138614861586F80182859385A485AD
:102C8000B585438954896589768984179507A60790
:102C9000B70708F04DC025E0B695A795979587959D
:102CA0002A95D1F7F82FFF70AF2ED80115968C9189
:102CB000823008F491CFC8010E94350E97FD8CCF69
:102CC000F80182859385A485B5854F96A11DB11D18
:102CD00082879387A487B587F0E2AF9EB001112465
:102CE00068587C4F6115710509F476CFDB018C9132
:102CF000882341F0853E09F062C0BB2029F0BB2447
:102D0000B394BACFB1100EC0F701A28A809100022D
:102D100090910102A0910202B091030286879787E9
:102D2000A08BB18BDB018C918111E9CFBB24B394D3
:102D3000832D8271823109F04FCFBB2009F44DC041
:102D4000F701668577858089918941E00E94330685
:102D5000882309F441CFD70152968C91B0E28B9F22
:102D6000C001112488589C4F009709F435CFFC010D
:102D70003A9626E1DF011D922A95E9F72BE0F6014C
:102D8000DC0101900D922A95E1F721E238E2FC0185
:102D9000318B208B40E058E057874687338B228B5E
:102DA000318F208F578B468B81E00E940806882345
:102DB00009F412CF432DD70152966C910AC04BE013
:102DC00050E0C6010E94BC24892B09F055CF432D49
:102DD0006A2DC7010E945A1300CFF8018581823005
:102DE00009F4FACEC8010E941C0A882309F4F4CE23
:102DF000D8015B96ED91FC915C9716968D909D9015
:102E0000AD90BC901997B2E08B1A9108A108B10857
:102E1000858504C0880C991CAA1CBB1C8A95D2F716
:102E200086859785A089B189880E991EAA1EBB1E2A
:102E3000848124013501480E511C611C711C8414CD
:102E40009504A604B70409F1E1E04E1A510861089F
:102E5000710881E00E940806882309F4BDCEE8E7E6
:102E6000F3E0119288E795E08E179F07D1F7409223
:102E7000000250920102609202027092030280915D
:102E8000BE0281608093BE02DACFD8015B96ED91DD
:102E9000FC91258580E092E0A0E0B0E004C0880FBE
:102EA000991FAA1FBB1F2A95D2F7F801438954899D
:102EB00065897689840F951FA61FB71F838B948B16
:102EC000A58BB68BD70152961C9288E793E04FCF23
:102ED000EF92FF920F931F93CF93DF93EC017B014F
:102EE0008A011B821A8288EE93E0A0E0B0E08C8316
:102EF0009D83AE83BF8386E492E0998388838DE1CE
:102F000090E00E94B6229A8F898F009779F02DE188
:102F1000F701DC0101900D922A95E1F74CE050E0B9
:102F2000B801CE010C960E94D924188EDF91CF9162
:102F30001F910F91FF90EF90089585ED8093BC0055
:102F40008091500390915103A0915203B09153038B
:102F50000796A11DB11D23E0B695A7959795879576
:102F60002A95D1F72091BC0024FD03C010924E0396
:102F70000895409150035091510360915203709114
:102F80005303452B462B472B69F30097A105B10549
:102F900041F025E32A95F1F700000197A109B10955
:102FA000E1CF80914F030C94C70F1F920F920FB681
:102FB0000F9211240BB60F922F933F934F935F9371
:102FC0006F937F938F939F93AF93BF93EF93FF93F1
:102FD0008AE795E00E946702FF91EF91BF91AF9160
:102FE0009F918F917F916F915F914F913F912F9121
:102FF0000F900BBE0F900FBE0F901F9018951F9251
:103000000F920FB60F9211240BB60F922F938F933E
:103010009F93EF93FF93E0918A05F0918B05808158
:10302000E0919005F091910582FD1DC09081809105
:1030300093058F5F8F7320919405821741F0E09183
:103040009305F0E0E658FA4F958F80939305FF9132
:10305000EF919F918F912F910F900BBE0F900FBE0C
:103060000F901F9018958081F2CF1F920F920FB68C
:103070000F9211240BB60F922F933F934F935F93B0
:103080006F937F938F939F93AF93BF93EF93FF9330
:1030900087E196E00E946702FF91EF91BF91AF91A7
:1030A0009F918F917F916F915F914F913F912F9160
:1030B0000F900BBE0F900FBE0F901F9018951F9290
:1030C0000F920FB60F9211240BB60F922F938F937E
:1030D0009F93EF93FF93E0912706F091280680815C
:1030E000E0912D06F0912E0682FD1DC09081809109
:1030F00030068F5F8F7320913106821741F0E09187
:103100003006F0E0E95EF94F958F80933006FF912D
:10311000EF919F918F912F910F900BBE0F900FBE4B
:103120000F901F9018958081F2CF1F920F920FB6CB
:103130000F9211242F933F938F939F93AF93BF933D
:103140008091C4029091C502A091C602B091C702BD
:103150003091C30223E0230F2D3758F50196A11DAE
:10316000B11D2093C3028093C4029093C502A09323
:10317000C602B093C7028091C8029091C902A09183
:10318000CA02B091CB020196A11DB11D8093C80265
:103190009093C902A093CA02B093CB02BF91AF91A2
:1031A0009F918F913F912F910F900FBE0F901F9085
:1031B000189526E8230F0296A11DB11DD2CF1F92AC
:1031C0000F920FB60F9211240BB60F922F933F93CD
:1031D0004F935F936F937F938F939F93AF93BF931F
:1031E000EF93FF938091B900887F803609F44DC03A
:1031F00008F040C0883209F4A9C028F5803109F4EC
:103200009DC0C8F4882309F4FBC0883009F496C037
:10321000FF91EF91BF91AF919F918F917F916F91AE
:103220005F914F913F912F910F900BBE0F900FBE6A
:103230000F901F901895883109F488C0803241F7AB
:1032400080934C0314C0803409F49DC040F4803353
:10325000B9F38833E9F680934C0385ECB0C0803530
:1032600009F485C0883509F496C0883489F60E942F
:103270009D17CECF883909F48CC038F5883729F0EE
:1032800050F4883611F0803719F683E080934E03AE
:103290001092BB0257C0883809F47BC0803919F0FE
:1032A000803809F0B5CF8091BB02803208F071C040
:1032B000E091BB0281E08E0F8093BB028091BB0046
:1032C000F0E0E556FD4F80833DC0803B39F0E0F4EF
:1032D000803A09F479C0883A09F09ACF84E0809363
:1032E0004E0310929A0210929902E091CE02F09150
:1032F000CF0219958091990281110FC081E08093CE
:1033000099021092790209C0803C09F4A6CF883C4A
:1033100009F4A3CF883B09F07BCFE0919A0281E0CA
:103320008E0F80939A02F0E0E758FD4F80818093E2
:10333000BB0090919A028091990229C08091290343
:103340008093BB0085EC8093BC0062CF90914B03CF
:1033500080914A03981758F5E0914B0381E08E0F56
:1033600080934B03F0E0E65DFC4F8081E9CFE09174
:103370004B0381E08E0F80934B038091BB00F0E004
:10338000E65DFC4F808390914B0380914A03981730
:10339000C8F285E8D8CFE0914B0381E08E0F80938F
:1033A0004B038091BB00F0E0E65DFC4F8083809191
:1033B0004D0381115CCF81E08093280384EA8093E0
:1033C000BC0010924E0324CF85EC8093BC00109279
:1033D0004E038091BB02803230F4E091BB02F0E0FA
:1033E000E556FD4F10826091BB0270E0E091CC0287
:1033F000F091CD028BE992E019951092BB0208CFB3
:1034000010924C0334CF10927D0510927C0588EE0B
:1034100093E0A0E0B0E080937E0590937F05A093B9
:103420008005B093810526E132E030937B0520933F
:103430007A054DEC50E050938705409386054CEC9F
:1034400050E0509389054093880548EC50E0509334
:103450008B0540938A0549EC50E050938D054093CD
:103460008C054AEC50E050938F0540938E054EEC4E
:1034700050E050939105409390051092930510925F
:103480009405109295051092960510921A061092C6
:10349000190680931B0690931C06A0931D06B093FB
:1034A0001E06309318062093170625EC30E0309363
:1034B00024062093230624EC30E030932606209344
:1034C000250620EC30E0309328062093270621ECD7
:1034D00030E030932A062093290622EC30E0309326
:1034E0002C0620932B0626EC30E030932E062093FA
:1034F0002D0610923006109231061092320610926C
:10350000330620E52093B4061092B5061092BB0650
:103510001092BC061092BF061092C10642E050E025
:1035200060E070E04093C2065093C3066093C40607
:103530007093C5061092D9061092E3061092E20627
:1035400028E232E03093E1062093E0061092E5068F
:1035500010920207109201078093030790930407CB
:10356000A0930507B093060724E332E030930007E9
:103570002093FF0610922F0710922E0728E532E0C5
:1035800030932D0720932C071092350727E22093C4
:10359000300720E12093360722E02093370710926E
:1035A0003807109214071092130780931507909311
:1035B0001607A0931707B093180786E492E090933C
:1035C00012078093110710922B0710922A0710926E
:1035D0001D071092100710920F0710920E071092FD
:1035E0000B07E1E0F3E081E08C3049F09491823008
:1035F00009F49F5F21E0280F3196992331F08093E1
:103600000C0781E080930D070895822FEDCFCF93B3
:10361000DF93CDB7DEB7C257D1090FB6F894DEBF3E
:103620000FBECDBF789484B5826084BD84B58160BF
:1036300084BD85B5826085BD85B5816085BD80917D
:103640006E00816080936E001092810080918100F5
:1036500082608093810080918100816080938100ED
:10366000809180008160809380008091B1008460AF
:103670008093B1008091B00081608093B000809110
:10368000910082608093910080919100816080938D
:103690009100809190008160809390008091A100C2
:1036A00082608093A1008091A10081608093A1003D
:1036B0008091A00081608093A000809121018260B0
:1036C000809321018091210181608093210180916B
:1036D000200181608093200180917A008460809332
:1036E0007A0080917A00826080937A0080917A00DB
:1036F000816080937A0080917A00806880937A005C
:103700001092C10086E10E94BA01E0918A05F09111
:103710008B0582E08083E0918605F0918705108219
:10372000E0918805F09189058FEC808310929205D5
:10373000E0918E05F0918F0586E08083E0918C0505
:10374000F0918D05808180618083E0918C05F091FE
:103750008D05808188608083E0918C05F0918D05D6
:10376000808180688083E0918C05F0918D05808157
:103770008F7D8083109207031092060310925503E9
:10378000109277030E94A90F89ED91E09093CF02E8
:103790008093CE028AED91E09093CD028093CC028B
:1037A0001092310780913707823018F098E090939B
:1037B00031078093340762E370E080E090E00E947C
:1037C000DD03609138078CE297E00E94241268EED6
:1037D00073E080E090E00E94DD0360E38CE297E01C
:1037E0000E94C613ABE4EA2EA6E4FA2EC7010197A5
:1037F000F1F760E38CE297E00E94C613C7010197DE
:10380000F1F760E38CE297E00E94C61383E592E053
:103810000197F1F760E28CE297E00E94C613609195
:103820003107606240E08CE297E00E94DF1384E0A1
:103830008093320740E06CE08CE297E00E94DF1357
:1038400040E061E08CE297E00E94DF138BE39FE1B0
:103850000197F1F780913507882321F060E080E03F
:103860000E94F61382E08093330740E066E08CE22A
:1038700097E00E94DF1340E062E08CE297E00E9454
:10388000DF138BE39FE10197F1F788E0809338071E
:1038900060E08CE297E00E9424121092550310928F
:1038A00077030E94A90F81E08093540388E68093F8
:1038B00076030E94E80F0E943C1390E0880F892F46
:1038C000881F990B892B09F4C9C04BE050E065EDC6
:1038D00071E0CE0101960E94DA21CE010A960E9483
:1038E0001B04E82EE981E154E331E8F40E2E000CCC
:1038F000FF0B8827E158F34E8F4F0C949322EB2057
:10390000931C931CFF20931C921C931C931C931CD0
:10391000DF20931C931CF220FD20FB20931C931CA2
:10392000931CF92012E0CE0105960E941B04C82EBC
:1039300048E050E06CEC71E0CE0101960E94DA2183
:10394000CE0101960E941B04B82ECE0104960E945F
:103950001B04A82ECE0107960E941B04982EFF245C
:10396000F394F092540308E6009376031092550303
:103970001092770360E08FEF96E00E94F511EAE085
:10398000DE2E892D6D2D0E947322682F660F680F21
:10399000660F690D8FEF96E00E94F5118A2D6D2D4F
:1039A0000E947322682F660F680F660F6A0D8FEFF3
:1039B00096E00E94F5118B2D6D2D0E947322682FC9
:1039C000660F680F660F6B0D8FEF96E00E94F51182
:1039D00060E08FEF96E00E94F5118C2D6D2D0E9416
:1039E0007322682F660F680F660F6C0D8FEF96E0DD
:1039F0000E94F511812F6D2D0E947322682F660F92
:103A0000680F660F610F8FEF96E00E94F5118E2D03
:103A10006D2D0E947322682F660F680F660F6E0D62
:103A20008FEF96E00E94F5110E94E80F0E943C1370
:103A3000182FF092540300937603109255031092BE
:103A400077036FE08FEF96E00E94F511612F6F779B
:103A50008FEF96E00E94F5110E94E80FCE010196CB
:103A60000E94961286E0FE013196ABE0B7E001902D
:103A70000D928A95E1F780910B0790E08053984F63
:103A80009093D4028093D3029093D2028093D10278
:103A900080910C078093D8028093D70280910D0704
:103AA0008093DB028093DA0280910E078093DE021E
:103AB0008093DD0280910F078093E1028093E00202
:103AC000809110078093E4028093E30281E00E94DA
:103AD000561484E08093FB0283E08093FC0268EE3E
:103AE000462E63E0562E612C712C74E6C72ED12C25
:103AF00080917B00877F80937B0080E480937C00B3
:103B000080917A00806480937A0080917A00282FD7
:103B10002074F22E86FDF9CF009178001091790083
:103B200060E088E00E94F613D80129E530E00E94A9
:103B30009B222FEF33E040E050E00E941822DA0190
:103B4000C9010A96A11DB11D0E942D142091FC02ED
:103B500030E0F901E550FE4F8491F901E554FD4F45
:103B60000491F901EB58FD4F1491112309F449C355
:103B700081110E942303E12FF0E0EE0FFF1FEF51B0
:103B8000FE4FA591B491EC910E2381E009F080E005
:103B90008093FD029091FE02891709F49AC08093E8
:103BA000FE02882309F4B2C3E090FA02E11091C04A
:103BB00081E08093FA021091FB028091E506882350
:103BC00021F080EE96E00E94C00B1092C106109288
:103BD000BF061092BC061092BB061093BA060E9454
:103BE0000F048B018091BA060E94BA0161E08091B6
:103BF000BA060E948A033FB6F8948091D0028111E0
:103C000024C0EAEAF2E08491E0EFF2E09491E82F38
:103C1000F0E0EE0FFF1FE55AFD4FA591B4918C9196
:103C2000982321F461E085E30E948A0385E30E94E2
:103C3000BA018CB580618CBD8CB580648CBD84E389
:103C40000E94BA0183E30E94BA018091D0028F5F83
:103C50008093D0023FBE82E58093B4061092B506F1
:103C60008091B4069091B5060E945E043AE0332E2E
:103C70008FEF0E9439043A943110FACF86EB96E028
:103C80000E94610420E030E0A90160E086EB96E04C
:103C90000E947704382E8093C006F1E08F1709F454
:103CA000B2C20E940F04601B710B613D774050F35C
:103CB00081E08093BB0686EB96E00E942E04E092A2
:103CC000F90261E08FE00E94F61384E692E00E9420
:103CD00089128091FF02882309F439C11092FF02F2
:103CE0008091F902813009F032C11C821B82E8E226
:103CF000F2E0FA83E9831E82CE0101960E94340924
:103D0000BE016F5F7F4FCE01CB960E94790D19A245
:103D100018A288E292E09F8F8E8F1BA221968FAD12
:103D200021978111FEC26C961FAE1EAE6C97A096B5
:103D30004CAE5DAE6EAE7FAEA097E6E4F2E06A9662
:103D4000FFAFEEAF6A97E3961FAE1EAEE397A59660
:103D50001FAEA5976C968EAD9FAD6C979093140790
:103D600080931307A0968CAD9DADAEADBFADA0976F
:103D70008093150790931607A0931707B093180721
:103D8000A4968CAD9DADAEADBFADA4978093190741
:103D900090931A07A0931B07B0931C07A8E5B0E007
:103DA000AC0FBD1F1C96EDE1F7E08D91819327E0EC
:103DB000EA32F207D1F7E3968EAD9FADE397909389
:103DC0002B0780932A076091D1027091D202CE0115
:103DD00001960E944015BE016F5F7F4F81E197E021
:103DE0000E94DB01CE0101960E9410156CE281E178
:103DF00097E00E941F0E6091D702062E000C770BF1
:103E0000CE0101960E944015BE016F5F7F4F81E198
:103E100097E00E94DB01CE0101960E9410156CE232
:103E200081E197E00E941F0E6091DA02062E000CDD
:103E3000770BCE0101960E944015BE016F5F7F4F48
:103E400081E197E00E94DB01CE0101960E941015EE
:103E50006CE281E197E00E941F0E6091DD02062E68
:103E6000000C770BCE0101960E944015BE016F5FDA
:103E70007F4F81E197E00E94DB01CE0101960E9415
:103E800010156CE281E197E00E941F0E6091E00244
:103E9000062E000C770BCE0101960E944015BE0144
:103EA0006F5F7F4F81E197E00E94DB01CE010196B9
:103EB0000E9410156CE281E197E00E941F0E609154
:103EC000E302062E000C770BCE0101960E944015EE
:103ED000BE016F5F7F4F81E197E00E94DB01CE0161
:103EE00001960E9410156CE281E197E00E941F0E7E
:103EF0006091000370910103CE0101960E9440156C
:103F0000BE016F5F7F4F81E197E00E94DB01CE0130
:103F100001960E9410156CE281E197E00E941F0E4D
:103F20006AE081E197E00E941F0E80912A0790913C
:103F30002B07009761F00E94C00B80912A07909197
:103F40002B070E94522310922B0710922A07CE01B2
:103F500001960E94961286E0FE013196ABE0B7E032
:103F600001900D928A95E1F780910B0790E08053C4
:103F7000984F9093D2028093D10280910C07809346
:103F8000D70280910D078093DA0280910E0780930B
:103F9000DD0280910F078093E002809110078093EB
:103FA000E30280E00E9456148AE795E00E944702EF
:103FB00018161906ECF481E08093F8028AE795E080
:103FC0000E9425029091F702993090F4E92FF0E0D9
:103FD000E251FD4F80839F5F9093F7020E940F0490
:103FE0006093EA027093EB028093EC029093ED02EF
:103FF0000E940F040091EA021091EB022091EC0262
:104000003091ED02601B710B820B930B69327105CD
:104010008105910508F4B0C08091F802882309F465
:10402000ABC01092F802EFEEF2E08191F80E82E060
:10403000E63FF807D1F7F1948091F6028F1193C013
:104040008091F202282F30E0322F22278091F30254
:10405000820F932F911D8131E7E29E070CF083C000
:104060009093E7028093E6020FE017E28031F7E2D7
:104070009F0709F08C019093E9028093E80260E0C9
:1040800080E00E94F613C801B6010E947F226AE018
:1040900070E00E947F22CE0101960E944015C80167
:1040A00068EE73E00E947F228B01B6010E947F229E
:1040B000CE014E960E944015B801CE01CB960E94CB
:1040C00040156A961FAE1EAE6A976C961FAE1EAE66
:1040D0006C976E961FAE1EAE6E9763E070E0CE01D9
:1040E000885A9F4F0E941815811146C1CE01885AE7
:1040F0009F4F0E94FE14BE01655C7F4FCE01885A1F
:104100009F4F0E948A158C01FC01E480F580FFEF2F
:10411000EF1AFF0AB7010E94181581113CC1C801AE
:104120000E94FE14BE01625E7F4FC8010E948A1584
:10413000BE016F5F7F4F0E948A15BC018CE297E041
:104140000E94DB01CE01885A9F4F0E941015CE01BC
:10415000CB960E941015CE014E960E941015CE01EE
:1041600001960E941015EEEEF2E0119222E0E73F78
:10417000F207D9F71092F7020E940F040091020390
:10418000109103032091040330910503601B710B10
:10419000820B930B683E73408105910568F00E9485
:1041A0000F046093020370930303809304039093BE
:1041B000050381E08093FF020E94F60299CC8A8178
:1041C00011E0813609F4AFCB8B8117E08E3609F010
:1041D000AACB16E0A8CB8B8118E0823709F0A3CBDD
:1041E00014E0A1CB8B8115E0823709F09CCB13E062
:1041F0009ACB19E098CB1AE096CB1BE094CB1CE04D
:1042000092CB81E0C5CC2AEA31E040E050E068E0A2
:1042100086EB96E00E94770482FF2AC03092C106A6
:104220008091C106812C912C5401823029F4812C7B
:10423000912CA12C90E4B92E20E030E0A90167E395
:1042400086EB96E00E947704A501940169E286EB73
:1042500096E00E9477048093C0068823D1F00E94E4
:104260000F04601B710B613D774030F388E021CD76
:1042700024E0322E0E9440048093C0063A9431100C
:10428000F9CF8A3A11F082E014CD82E08093C10622
:10429000C7CF8091C1068230D1F420E030E0A9017F
:1042A0006AE386EB96E00E947704882311F086E0AB
:1042B00000CD0E944004807C803C19F483E0809310
:1042C000C1060E9440040E9440040E94400486EB04
:1042D00096E00E942E0480E58093B4061092B50605
:1042E00081E00E947D06882351F080EE96E00E94D6
:1042F0003409EE24E3948111E2CCE12CE0CC80E09F
:104300000E947D06882309F4DACCEFCF1092FA02DE
:104310001092F90261E08FE00E94F61384E792E0C8
:10432000D6CC27E146E652E0BE01655C7F4FCE0168
:104330004E960E94BD15882309F4F5CCCE01CB968C
:104340000E94C00B49A95AA96BA97CA9CE014E961F
:104350000E948809BE01625E7F4FCE0101960E94D5
:10436000790D46E652E0BE016F5F7F4FCE01885A5D
:104370009F4F0E946817EECC83E090E06E969FAF4F
:104380008EAF6E9762E772E06A968EAD9FAD6A97C8
:104390000E94D224B0CEF8012081318184819581A0
:1043A00066E772E0820F931F0E94D224F801F58223
:1043B000E482B8CEFB01DC0102C005900D924150B1
:1043C0005040D8F70895BB274A3031F4992322F49E
:1043D000BDE2909581959F4F0C94EF21BB27FB0187
:1043E0005527AA27880F991FAA1FA41710F0A41BEE
:1043F00083955051B9F7A05DAA3308F0A95DA19348
:10440000009779F7B111B1931192CB010C94082266
:10441000DC01FC01672F71917723E1F7329704C02B
:104420007C916D9370836291AE17BF07C8F30895B6
:10443000052E97FB1EF400940E942F2257FD07D0F3
:104440000E94422207FC03D04EF40C942F22509578
:104450004095309521953F4F4F4F5F4F0895909570
:104460008095709561957F4F8F4F9F4F08950E9463
:104470006422A59F900DB49F900DA49F800D911D67
:1044800011240895A1E21A2EAA1BBB1BFD010DC029
:10449000AA1FBB1FEE1FFF1FA217B307E407F507F4
:1044A00020F0A21BB30BE40BF50B661F771F881FD0
:1044B000991F1A9469F760957095809590959B0166
:1044C000AC01BD01CF010895A29FB001B39FC0010F
:1044D000A39F700D811D1124911DB29F700D811D30
:1044E0001124911D0895991B79E004C0991F961716
:1044F00008F0961B881F7A95C9F78095089597FB59
:10450000072E16F4009407D077FD09D00E94A2224E
:1045100007FC05D03EF4909581959F4F08957095C6
:1045200061957F4F0895EE0FFF1F881F8BBF079087
:10453000F691E02D19940E946422B7FF0895821B22
:10454000930B0895AA1BBB1B51E107C0AA1FBB1FF9
:10455000A617B70710F0A61BB70B881F991F5A950F
:10456000A9F780959095BC01CD0108950F931F93F5
:10457000CF93DF938230910510F482E090E0E091D8
:104580003B07F0913C0730E020E0B0E0A0E030973E
:1045900099F42115310509F44AC0281B390B243040
:1045A0003105D8F58A819B816115710589F1FB017F
:1045B00093838283FE0111C0408151810281138166
:1045C00048175907E0F04817590799F4109761F018
:1045D00012960C93129713961C933296CF01DF918B
:1045E000CF911F910F91089500933B0710933C07C3
:1045F000F4CF2115310551F04217530738F0A901C6
:10460000DB019A01BD01DF01F801C1CFEF01F9CF54
:1046100090933C0780933B07CDCFFE01E20FF31F41
:10462000819391932250310939832883D7CF2091E8
:10463000390730913A07232B41F42091060230913B
:10464000070230933A0720933907209104023091F2
:1046500005022115310541F42DB73EB740910802FE
:1046600050910902241B350BE0913907F0913A076C
:10467000E217F307A0F42E1B3F0B2817390778F039
:10468000AC014E5F5F4F2417350748F04E0F5F1F98
:1046900050933A0740933907819391939FCFF0E06D
:1046A000E0E09CCFCF93DF930097E9F0FC013297D5
:1046B00013821282A0913B07B0913C07ED0130E0DC
:1046C00020E01097A1F420813181820F931F209167
:1046D000390730913A072817390709F061C0F0937C
:1046E0003A07E0933907DF91CF910895EA01CE1799
:1046F000DF07E8F54A815B819E0141155105B1F75D
:10470000E901FB83EA8349915991C40FD51FEC1746
:10471000FD0761F4808191810296840F951FE90164
:1047200099838883828193819B838A83F0E0E0E090
:1047300012968D919C9113970097B9F52D913C910C
:104740001197CD010296820F931F20913907309166
:104750003A072817390739F6309751F510923C0778
:1047600010923B07B0933A07A0933907BCCFD3838D
:10477000C28340815181840F951FC817D90761F406
:104780004E5F5F4F88819981480F591F5183408345
:104790008A819B81938382832115310509F0B0CFF3
:1047A000F0933C07E0933B079ECFFD01DC01C0CFB7
:1047B00013821282D7CF4F925F926F927F928F9225
:1047C0009F92AF92BF92CF92DF92EF92FF920F93A0
:1047D0001F93CF93DF938C01009799F4CB01DF9166
:1047E000CF911F910F91FF90EF90DF90CF90BF90EE
:1047F000AF909F908F907F906F905F904F900C94B0
:10480000B622FC01E60FF71F9C0122503109E21786
:10481000F30708F4AEC0D901CD91DC911197C6170A
:10482000D70720F1C530D10578F0CE01049786175F
:10483000970750F0C61BD70B2297C193D1936D9366
:104840007C93CF010E945223C801DF91CF911F9129
:104850000F91FF90EF90DF90CF90BF90AF909F901F
:104860008F907F906F905F904F9008955B01AC1A8E
:10487000BD0A4C018C0E9D1EA0913B07B0913C07D8
:10488000512C412CF12CE12C109731F580913907F6
:1048900090913A078815990509F05CC046165706AD
:1048A00008F058C08091040290910502009741F4ED
:1048B0008DB79EB74091080250910902841B950B59
:1048C000E817F90708F055C0F0933A07E093390765
:1048D000F90171836083B8CF8D919C9111971296E5
:1048E0006C90129713967C901397A815B90559F5FB
:1048F0006C0142E0C40ED11CCA14DB0420F1AC01EF
:104900004A195B09DA011296159780F06282738268
:1049100051834083D9016D937C93E114F10471F0CC
:10492000D7011396FC93EE9312978ECF22968C0F9D
:104930009D1FF90191838083F301EFCFF0933C0732
:10494000E0933B0781CF4816590608F42C017D01FE
:10495000D3019ACFCB010E94B6227C01009749F087
:10496000AE01B8010E94C924C8010E9452238701E8
:104970006BCF10E000E068CFFB01DC0104C08D913B
:104980000190801921F441505040C8F7881B990BC1
:104990000895FB01DC0102C001900D92415050408E
:1049A000D8F70895FB01DC0101900D920020E1F79A
:1049B0000895FB01DC014150504048F001900D92F8
:1049C0000020C9F701C01D9241505040E0F7089502
:0449D000F894FFCF89
:1049D400FFFFFFFF00003D078000000040001400BF
:1049E4005400000000008902E9011602D6024702C1
:1049F4002502390200000000680DE901620B37123C
:104A040000000000F511C81138129E11C111AE1139
:104A14009F11000000001F0E020EF20DC90DD20DF1
:104A2400540F5E0F000000002714E90138123712FA
:104A34002F003A002A00686973746F72792E6373C9
:084A44007600533A20002E0019
:00000001FF
